:100000000C9434000C9446000C9446000C9446006A
:100010000C9446000C9446000C9446000C94460048
:100020000C9446000C9446000C94C1000C944600BD
:100030000C9446000C9446000C9446000C94460028
:100040000C9446000C9446000C9446000C94460018
:100050000C9446007F00830087008B008F00930084
:1000600097009B009F00A30011241FBECFE5D8E09E
:10007000DEBFCDBF20E0A0E6B0E001C01D92A536F6
:10008000B207E1F70E94BC010C94DC010C94000063
:1000900080E487B987E886B9089597B1907E97B9CB
:1000A00097B1892B87B986B1806486B93699FECF1E
:1000B00024B185B190E0982F8827822B089580E89D
:1000C0008FBF8BE083BF12BE8DE78CBF89B7826084
:1000D00089BF089581B3806881BB8FE685BD08958F
:1000E0009BB3907F9BBB95B315BA462F50E04A3027
:1000F000510560F5FA01E65DFF4F0C94C70195B319
:100100009F6395BB23C095B3966095BB1FC095B305
:100110009B6595BB1BC095B39F6495BB17C095B3FA
:10012000966695BB13C095B39D6695BB0FC095B3FE
:100130009D6795BB0BC095B3976095BB07C095B302
:100140009F6795BB03C095B39F6695BB823069F0EE
:1001500018F4813031F00895833059F0843069F01B
:1001600008958BB381608BBB08958BB382608BBB8A
:1001700008958BB384608BBB08958BB388608BBB71
:1001800008951F920F920FB60F9211242F933F9351
:100190004F935F936F937F938F939F93AF93BF938F
:1001A000EF93FF93809162008F5F809362008230B3
:1001B00061F118F4813041F0B1C0833009F44FC0CF
:1001C000843009F478C0AAC0409160005091610069
:1001D0009A01ADECBCEC0E94CD0196958795969561
:1001E000879596958795BC01660F771F880F991F95
:1001F000880F991F880F991F860F971F281B390B8F
:10020000622F81E00E94700089C0209160003091CF
:100210006100ADECBCEC0E94CD01AC015695479558
:1002200056954795569547959A010E94CD0196950A
:1002300087959695879596958795BC01660F771F4C
:10024000880F991F880F991F880F991F860F971F76
:10025000281B390B622F82E00E9470005FC0209142
:100260006000309161003695279536952795ABE76C
:10027000B4E10E94CD01AC01569547959A01ADECD1
:10028000BCEC0E94CD01969587959695879596959D
:100290008795BC01660F771F880F991F880F991FDC
:1002A000880F991F860F971F281B390B622F83E039
:1002B0000E94700033C0209160003091610036953B
:1002C00027953695279536952795A5ECB0E20E949F
:1002D000CD01AC01529542954F7045275F7045277F
:1002E0009A01ADECBCEC0E94CD0196958795969550
:1002F000879596958795BC01660F771F880F991F84
:10030000880F991F880F991F860F971F281B390B7D
:10031000622F84E00E94700010926200809163005E
:10032000909164008336910589F486E00E944D0027
:100330009093610080936000969587959695879538
:1003400083BD109264001092630005C001969093E3
:10035000640080936300FF91EF91BF91AF919F91F3
:100360008F917F916F915F914F913F912F910F905E
:100370000FBE0F901F9018958FE08ABB8FEF84BB44
:100380000E945F000E946A000E944800FFCFEE0FAB
:10039000FF1F0590F491E02D0994A29FB001B39F37
:1003A000C001A39F700D811D1124911DB29F700D7E
:0C03B000811D1124911D0895F894FFCFC9
:00000001FF
