S01000004C616235204144432E73726563E8
S11300000C9434000C9446000C9446000C94460066
S11300100C9446000C9446000C9446000C94460044
S11300200C9446000C9446000C94B8000C944600C2
S11300300C9446000C9446000C9446000C94460024
S11300400C94AE010C9446000C9446000C944600AB
S11300500C94460077007B007F00830087008B00B0
S11300608F00930097009B0011241FBECFE5D8E0BA
S1130070DEBFCDBF20E0A0E6B0E001C01D92A537F1
S1130080B207E1F70E941C020C94D6030C94000002
S113009080E487B987E886B986B1886086B98FB766
S11300A080688FBF089597B1907E97B997B1892BD7
S11300B087B986B1806486B9089580E88FBF8BE0E4
S11300C083BF12BE8DE78CBF89B7826089BF089554
S11300D09BB3907F9BBB95B315BA462F50E04A3033
S11300E0510560F5FA01E65DFF4F0C94C10395B329
S11300F09F6395BB23C095B3966095BB1FC095B312
S11301009B6595BB1BC095B39F6495BB17C095B306
S1130110966695BB13C095B39D6695BB0FC095B30A
S11301209D6795BB0BC095B3976095BB07C095B30E
S11301309F6795BB03C095B39F6695BB823081F0E2
S113014018F4813089F00895833031F0843079F4E3
S11301508BB381608BBB08958BB382608BBB089596
S11301608BB384608BBB08958BB388608BBB08957D
S11301701F920F920FB60F9211242F933F934F9318
S11301805F936F937F938F939F93AF93BF93EF93FB
S1130190FF93809162008F5F80936200823061F1EF
S11301A018F4813041F0B4C0833009F452C0843073
S11301B009F47BC0ADC040916000509161009A0188
S11301C0ADECBCEC0E94C7039695879596958795F0
S11301D096958795BC01660F771F880F991F880F26
S11301E0991F880F991F860F971F281B390B622FA1
S11301F081E00E9468008CC0209160003091610011
S1130200ADECBCEC0E94C703AC01569547955695DE
S11302104795569547959A010E94C70396958795E9
S11302209695879596958795BC01660F771F880FDD
S1130230991F880F991F880F991F860F971F281BD6
S1130240390B622F82E00E94680085B3806885BB09
S11302505FC02091600030916100369527953695F6
S11302602795ABE7B4E10E94C703AC0156954795C7
S11302709A01ADECBCEC0E94C703969587959695C0
S1130280879596958795BC01660F771F880F991FF0
S1130290880F991F880F991F860F971F281B390BEA
S11302A0622F83E00E94680033C020916000309187
S11302B06100369527953695279536952795A5ECB3
S11302C0B0E20E94C703AC01529542954F70452796
S11302D05F7045279A01ADECBCEC0E94C70396956C
S11302E087959695879596958795BC01660F771F98
S11302F0880F991F880F991F880F991F860F971FC2
S1130300281B390B622F84E00E946800109262005F
S11303108091630090916400873E33E0930741F439
S113032087E00E945300109264001092630005C09D
S113033001969093640080936300FF91EF91BF91C5
S1130340AF919F918F917F916F915F914F913F9169
S11303502F910F900FBE0F901F9018951F920F9220
S11303600FB60F9211242F933F934F935F936F9384
S11303707F938F939F93AF93BF93EF93FF9364B156
S113038070E070936E0060936D0085B190E090937F
S1130390700080936F00982F8827682B792B7093B7
S11303A06C0060936B0080E090E00E94C60220E045
S11303B030E040EA50E40E94540320E030E040E89A
S11303C05AE30E9454036093710070937200809307
S11303D073009093740020E030E04AE754E40E94F4
S11303E0540320E030E040E251E40E94250260938F
S11303F0650070936600809367009093680020E026
S113040030E040E251E40E9454030E94970270934A
S1130410610060936000FF91EF91BF91AF919F9154
S11304208F917F916F915F914F913F912F910F9099
S11304300FBE0F901F9018958FE08ABB8FEF84BB7F
S11304400E945D000E944800FFCF0E9439020C9474
S11304501A030E94130358F00E940C0340F029F47D
S11304605F3F29F00C94030351110C944E030C9438
S113047009030E942B0368F39923B1F3552391F3E5
S1130480951B550BBB27AA2762177307840738F0FF
S11304909F5F5F4F220F331F441FAA1FA9F335D05C
S11304A00E2E3AF0E0E832D091505040E695001C10
S11304B0CAF72BD0FE2F29D0660F771F881FBB1FCA
S11304C0261737074807AB07B0E809F0BB0B802DA8
S11304D0BF01FF2793585F4F3AF09E3F510578F0D4
S11304E00C9403030C944E035F3FE4F3983ED4F35F
S11304F0869577956795B795F7959F5FC9F7880FA8
S1130500911D9695879597F90895E1E0660F771FF9
S1130510881FBB1F621773078407BA0720F0621B8A
S1130520730B840BBA0BEE1F88F7E09508950E94B5
S1130530330388F09F5798F0B92F9927B751B0F03B
S1130540E1F0660F771F881F991F1AF0BA95C9F753
S113055014C0B13091F00E944D03B1E008950C94A1
S11305604D03672F782F8827B85F39F0B93FCCF354
S1130570869577956795B395D9F73EF490958095D0
S1130580709561957F4F8F4F9F4F0895E89409C0F0
S113059097FB3EF490958095709561957F4F8F4FB2
S11305A09F4F9923A9F0F92F96E9BB279395F695C8
S11305B0879577956795B795F111F8CFFAF4BB0F46
S11305C011F460FF1BC06F5F7F4F8F4F9F4F16C0AA
S11305D0882311F096E911C0772321F09EE8872F34
S11305E0762F05C0662371F096E8862F70E060E0F0
S11305F02AF09A95660F771F881FDAF7880F969569
S1130600879597F9089597F99F6780E870E060E00F
S113061008959FEF80EC089500240A941616170697
S113062018060906089500240A94121613061406DF
S113063005060895092E0394000C11F4882352F042
S1130640BB0F40F4BF2B11F460FF04C06F5F7F4FFA
S11306508F4F9F4F089557FD9058440F551F59F0E1
S11306605F3F71F04795880F97FB991F61F09F3F9B
S113067079F087950895121613061406551FF2CFC4
S11306804695F1DF08C0161617061806991FF1CF14
S113069086957105610508940895E894BB2766273B
S11306A07727CB0197F908950E9467030C941A03E6
S11306B00E940C0338F00E94130320F0952311F0DC
S11306C00C9403030C94090311240C944E030E940C
S11306D02B0370F3959FC1F3950F50E0551F629F54
S11306E0F001729FBB27F00DB11D639FAA27F00D87
S11306F0B11DAA1F649F6627B00DA11D661F829FAE
S11307002227B00DA11D621F739FB00DA11D621F92
S1130710839FA00D611D221F749F3327A00D611DAF
S1130720231F849F600D211D822F762F6A2F112491
S11307309F5750409AF0F1F088234AF0EE0FFF1FC4
S1130740BB1F661F771F881F91505040A9F79E3F1B
S1130750510580F00C9403030C944E035F3FE4F3C3
S1130760983ED4F3869577956795B795F795E79571
S11307709F5FC1F7FE2B880F911D9695879597F97A
S11307800895EE0FFF1F0590F491E02D0994A29FA8
S1130790B001B39FC001A39F700D811D1124911D51
S11307A0B29F700D811D1124911D0895F894FFCFFF
S9030000FC
