:100000000C9434000C9446000C9446000C9446006A
:100010000C9446000C9446000C9423020C94460069
:100020000C9446000C9498020C94D0000C9446005A
:100030000C9446000C9446000C9446000C94460028
:100040000C94D3010C9446000C9446000C9446008A
:100050000C9446008B008F00930097009B009F003C
:10006000A300A700AB00AF0011241FBECFE5D8E06E
:10007000DEBFCDBF20E0A0E6B0E001C01D92A938F0
:10008000B207E1F70E94C5020C94AF040C94000083
:1000900080E487B986E886B9089597B1907E97B9CC
:1000A00097B1892B87B986B1806486B93699FECF1E
:1000B00024B185B190E0982F8827822B089580E89D
:1000C0008FBF8BE083BF12BE8DE78CBF89B7826084
:1000D00089BF089581B3806881BB89E685BD089595
:1000E00081B38F7B81BB1FBC82E48EBD89B78062E8
:1000F00089BF89B7846089BF08959C019BB3907FB5
:100100009BBB85B315BA6A30710560F5FB01E65DEE
:10011000FF4F0C949A0485B38F6385BB23C085B3CE
:10012000866085BB1FC085B38B6585BB1BC085B34F
:100130008F6485BB17C085B3866685BB13C085B346
:100140008D6685BB0FC085B38D6785BB0BC085B33E
:10015000876085BB07C085B38F6785BB03C085B348
:100160008F6685BB2230310581F020F421303105C6
:1001700041F008952330310559F02430310561F004
:1001800008958BB381608BBB08958BB382608BBB6A
:100190008BB384608BBB08958BB388608BBB089551
:1001A0001F920F920FB60F9211242F933F934F93EC
:1001B0005F936F937F938F939F93AF93BF93EF93CF
:1001C000FF93809168008F5F80936800823069F1AF
:1001D00018F4813041F0B5C0833009F451C0843047
:1001E00009F47BC0AEC040916400509165009A0153
:1001F000ADECBCEC0E94A0049695879596958795EA
:10020000969587959C01220F331F880F991F880FA1
:10021000991F880F991F820F931FBA01681B790BD2
:1002200081E090E00E947D008CC0209164003091BC
:100230006500ADECBCEC0E94A004AC01569547955E
:1002400056954795569547959A010E94A004969514
:10025000879596958795969587959C01220F331FD4
:10026000880F991F880F991F880F991F820F931F5E
:10027000BA01681B790B82E090E00E947D0061C0AA
:100280002091640030916500369527953695279525
:10029000ABE7B4E10E94A004AC01569547959A01E2
:1002A000ADECBCEC0E94A004969587959695879539
:1002B000969587959C01220F331F880F991F880FF1
:1002C000991F880F991F820F931FBA01681B790B22
:1002D00083E090E00E947D0034C020916400309162
:1002E0006500369527953695279536952795A5EC83
:1002F000B0E20E94A004AC01529542954F70452790
:100300005F7045279A01ADECBCEC0E94A004969565
:10031000879596958795969587959C01220F331F13
:10032000880F991F880F991F880F991F820F931F9D
:10033000BA01681B790B84E090E00E947D00109266
:100340006800809166009091670083369105A9F45A
:1003500086E00E944D00969587959695879583BD7A
:10036000809177009091780090936500809364006D
:10037000109267001092660005C001969093670086
:1003800080936600FF91EF91BF91AF919F918F9104
:100390007F916F915F914F913F912F910F900FBE81
:1003A0000F901F9018951F920F920FB60F92112465
:1003B0002F933F934F935F936F937F938F939F936D
:1003C000AF93BF93EF93FF9384B165B170E0762F45
:1003D0006627682B80E090E00E947D0320E030E0FB
:1003E00040EA50E40E940B0420E030E040E85AE389
:1003F0000E940B0420E030E04AE754E40E940B0422
:1004000020E030E040E251E40E94D50220E030E0FC
:1004100040E251E40E940B040E9447037093650080
:1004200060936400FF91EF91BF91AF919F918F9185
:100430007F916F915F914F913F912F910F900FBEE0
:100440000F901F9018951F920F920FB60F921124C4
:100450002F933F934F935F936F937F938F939F93CC
:10046000AF93BF93EF93FF931DBC1CBC26B5422FE7
:1004700050E060E070E040936F0050937000609334
:1004800071007093720097B5892F90E0A0E0B0E002
:100490008093790090937A00A0937B00B0937C00C6
:1004A000BA2FA92F982F8827482B592B6A2B7B2BE3
:1004B0008091600090916100A0916200B091630012
:1004C000DC0199278827840F951FA61FB71F9C0161
:1004D000AD01220F331F441F551F20937D00309321
:1004E0007E0040937F005093800060E077E883E9CE
:1004F00093E00E9478043093780020937700109264
:100500006000109261001092620010926300FF91EF
:10051000EF91BF91AF919F918F917F916F915F917B
:100520004F913F912F910F900FBE0F901F901895F4
:100530001F920F920FB60F9211248F939F93AF9338
:10054000BF938091600090916100A0916200B09192
:1005500063000196A11DB11D80936000909361001E
:10056000A0936200B09363000497A105B10520F049
:100570001092780010927700BF91AF919F918F9168
:100580000F900FBE0F901F9018958FE08ABB8FEFD2
:1005900084BB0E945F000E9448000E946A000E9483
:1005A00070008FB780688FBFFFCF0E94E9020C9464
:1005B000D1030E94CA0358F00E94C30340F029F4FB
:1005C0005F3F29F00C94BA0351110C9405040C946C
:1005D000C0030E94E20368F39923B1F3552391F31A
:1005E000951B550BBB27AA2762177307840738F0A2
:1005F0009F5F5F4F220F331F441FAA1FA9F335D0FF
:100600000E2E3AF0E0E832D091505040E695001CB2
:10061000CAF72BD0FE2F29D0660F771F881FBB1F6C
:10062000261737074807AB07B0E809F0BB0B802D4A
:10063000BF01FF2793585F4F3AF09E3F510578F076
:100640000C94BA030C9405045F3FE4F3983ED4F392
:10065000869577956795B795F7959F5FC9F7880F4A
:10066000911D9695879597F90895E1E0660F771F9C
:10067000881FBB1F621773078407BA0720F0621B2D
:10068000730B840BBA0BEE1F88F7E09508950E9458
:100690004E036894B1110C94050408950E94EA0376
:1006A00088F09F5798F0B92F9927B751B0F0E1F033
:1006B000660F771F881F991F1AF0BA95C9F714C0E3
:1006C000B13091F00E940404B1E008950C94040448
:1006D000672F782F8827B85F39F0B93FCCF386951C
:1006E00077956795B395D9F73EF490958095709579
:1006F00061957F4F8F4F9F4F0895E89409C097FBF6
:100700003EF490958095709561957F4F8F4F9F4FE8
:100710009923A9F0F92F96E9BB279395F69587952C
:1007200077956795B795F111F8CFFAF4BB0F11F4EF
:1007300060FF1BC06F5F7F4F8F4F9F4F16C0882396
:1007400011F096E911C0772321F09EE8872F762FCC
:1007500005C0662371F096E8862F70E060E02AF00D
:100760009A95660F771F881FDAF7880F96958795F9
:1007700097F9089597F99F6780E870E060E0089521
:100780009FEF80EC089500240A94161617061806A9
:100790000906089500240A94121613061406050685
:1007A0000895092E0394000C11F4882352F0BB0F16
:1007B00040F4BF2B11F460FF04C06F5F7F4F8F4F79
:1007C0009F4F089557FD9058440F551F59F05F3FB4
:1007D00071F04795880F97FB991F61F09F3F79F063
:1007E00087950895121613061406551FF2CF4695E5
:1007F000F1DF08C0161617061806991FF1CF869567
:100800007105610508940895E894BB27662777274A
:10081000CB0197F908950E941E040C94D1030E9405
:10082000C30338F00E94CA0320F0952311F00C9402
:10083000BA030C94C00311240C9405040E94E20333
:1008400070F3959FC1F3950F50E0551F629FF00123
:10085000729FBB27F00DB11D639FAA27F00DB11D3C
:10086000AA1F649F6627B00DA11D661F829F2227C5
:10087000B00DA11D621F739FB00DA11D621F839F4C
:10088000A00D611D221F749F3327A00D611D231F22
:10089000849F600D211D822F762F6A2F11249F5770
:1008A00050409AF0F1F088234AF0EE0FFF1FBB1F73
:1008B000661F771F881F91505040A9F79E3F510532
:1008C00080F00C94BA030C9405045F3FE4F3983E67
:1008D000D4F3869577956795B795F795E7959F5FDC
:1008E000C1F7FE2B880F911D9695879597F908956E
:1008F000A1E21A2EAA1BBB1BFD010DC0AA1FBB1F24
:10090000EE1FFF1FA217B307E407F50720F0A21B95
:10091000B30BE40BF50B661F771F881F991F1A9402
:1009200069F760957095809590959B01AC01BD012C
:10093000CF010895EE0FFF1F0590F491E02D09946B
:10094000A29FB001B39FC001A39F700D811D112410
:10095000911DB29F700D811D1124911D0895F89471
:02096000FFCFC7
:00000001FF
