S0100000436F6C6F637669752E73726563D0
S11300000C9471000C948E000C948E000C948E0051
S11300100C948E000C948E000C948E000C948E0024
S11300200C948E000C948E000C9431010C948E0070
S11300300C948E000C948E000C948E000C948E0004
S11300400C948E000C948E000C948E000C948E00F4
S11300500C948E00C100C500C900CD00D100D500AC
S1130060D900DD00E100E500F000F000F000F00050
S1130070F000F000F000F000F000F000F000F000FC
S1130080F000F000F000F000F000F000F000F000EC
S1130090F000F000F000F000F000F000F000F000DC
S11300A0F000F000F000F000F000F000F000F000CC
S11300B0F000F000F000F000F000F000F000F000BC
S11300C0F000F000F000F000F000F000F000F000AC
S11300D0F000F000F000F000F000E900F000F000A3
S11300E0ED0011241FBECFE5D8E0DEBFCDBF10E088
S11300F0A0E6B0E0E4E6FAE002C005900D92A23674
S1130100B107D9F720E0A2E6B0E001C01D92AB37F9
S1130110B207E1F70E940A010C9430050C94000028
S113012080E487B987E886B9089597B1907E97B936
S113013097B1892B87B986B1806486B93699FECF89
S113014024B185B190E0982F8827822B089580E808
S11301508FBF8BE083BF12BE8DE78CBF89B78260EF
S113016089BF08959BB3907F9BBB95B315BA462F67
S113017050E047345105A0F5FA01E65DFF4F0C94B9
S11301801B0595B39F6395BB2BC095B3966095BB38
S113019027C095B39B6595BB23C095B39F6495BB5E
S11301A01FC095B3966695BB1BC095B39D6695BB62
S11301B017C095B39D6795BB13C095B3976095BB66
S11301C00FC095B39F6795BB0BC095B39F6695BB56
S11301D007C095B3996395BB03C095B3916795BB6D
S11301E0823081F018F4813089F00895833031F041
S11301F0843079F48BB381608BBB08958BB38260B8
S11302008BBB08958BB384608BBB08958BB38860DC
S11302108BBB089581B3846081BB81B38F7E81BB26
S11302208FE08ABB8FEF84BB0E94A7000E949000DE
S1130230849B0DC0809162008111FACF81E080938C
S1130240620090916100891B80936100F1CF10924C
S11302506200EECF20E030E040E052E40E9413035D
S113026008951F920F920FB60F9211242F933F936C
S11302704F935F936F937F938F939F93AF93BF93AA
S1130280EF93FF93809168008F5F80936800909153
S11302906100992309F48DC0823079F018F481301B
S11302A039F013C1833051F1843009F454C00DC1C5
S11302B063E481E00E94B20008C14091660050915D
S11302C067009A01ADECBCEC0E94210596958795D8
S11302D09695879596958795BC01660F771F880F2D
S11302E0991F880F991F880F991F860F971F281B26
S11302F0390B622F82E00E94B200E7C020916600B1
S113030030916700ADECBCEC0E942105AC01569520
S1130310479556954795569547959A010E9421050C
S1130320969587959695879596958795BC01660FC2
S1130330771F880F991F880F991F880F991F860FA1
S1130340971F281B390B622F83E00E94B20085B3EC
S1130350806885BBBAC020916600309167003695ED
S1130360279536952795ABE7B4E10E942105AC01AA
S1130370569547959A01ADECBCEC0E9421059695E3
S113038087959695879596958795BC01660F771FF7
S1130390880F991F880F991F880F991F860F971F21
S11303A0281B390B622F84E00E94B200109268006F
S11303B08CC0823079F018F4813039F086C08330F3
S11303C051F1843009F454C080C063E481E00E9498
S11303D0B2007BC040916400509165009A01ADEC7D
S11303E0BCEC0E94210596958795969587959695E0
S11303F08795BC01660F771F880F991F880F991F77
S1130400880F991F860F971F281B390B622F82E0D4
S11304100E94B2005AC02091640030916500ADEC96
S1130420BCEC0E942105AC0156954795569547951D
S1130430569547959A010E9421059695879596951C
S1130440879596958795BC01660F771F880F991F2E
S1130450880F991F880F991F860F971F281B390B28
S1130460622F83E00E94B20085B3806885BB2DC0F3
S1130470209164003091650036952795369527952F
S1130480ABE7B4E10E942105AC01569547959A016A
S1130490ADECBCEC0E9421059695879596958795C1
S11304A096958795BC01660F771F880F991F880F53
S11304B0991F880F991F860F971F281B390B622FCE
S11304C084E00E94B20010926800809169009091CB
S11304D06A008A30910509F05EC086E00E949500AA
S11304E0909367008093660064B170E07093740029
S11304F06093730085B190E09093760080937500CB
S1130500982F8827682B792B709372006093710061
S113051080E090E00E94200420E030E040EA50E4D3
S11305200E94AE0420E030E040E85AE30E94AE04AA
S113053060937700709378008093790090937A00A9
S113054020E030E04AE754E40E94AE0420E030E0CA
S113055040E251E40E947F0360936B0070936C004F
S113056080936D0090936E000E94F1037093670076
S11305706093660080E090E00E9420040E942A01BB
S11305800E94F103709365006093640010926A0006
S11305901092690005C0019690936A0080936900E7
S11305A080916600909167008C32914020F082B374
S11305B0846082BB03C082B38B7F82BB8091640062
S11305C0909165008C32914020F082B3846082BBAC
S11305D003C082B38B7F82BB8091660090916700D9
S11305E0823D910528F480916000815080936000E1
S11305F080916000811105C0809163008F5F8093BA
S11306006300FF91EF91BF91AF919F918F917F9183
S11306106F915F914F913F912F910F900FBE0F906B
S11306201F9018955058BB27AA270E942A030C94A0
S113063074040E94660438F00E946D0420F039F4BA
S11306409F3F19F426F40C9463040EF4E095E7FB41
S11306500C945D04E92F0E94850458F3BA176207CD
S113066073078407950720F079F4A6F50C94A70482
S11306700EF4E0950B2EBA2FA02D0B01B9019001B9
S11306800C01CA01A0011124FF27591B99F0593FFD
S113069050F4503E68F11A16F040A22F232F342F45
S11306A04427585FF3CF469537952795A795F04093
S11306B05395C9F77EF41F16BA0B620B730B840BA8
S11306C0BAF09150A1F0FF0FBB1F661F771F881F60
S11306D0C2F70EC0BA0F621F731F841F48F48795B8
S11306E077956795B795F7959E3F08F0B0CF9395AA
S11306F0880F08F09927EE0F9795879508950E9423
S113070093030C9474040E946D0458F00E946604D0
S113071040F029F45F3F29F00C945D0451110C94CE
S1130720A8040C9463040E94850468F39923B1F32C
S1130730552391F3951B550BBB27AA276217730703
S1130740840738F09F5F5F4F220F331F441FAA1F97
S1130750A9F335D00E2E3AF0E0E832D09150504053
S1130760E695001CCAF72BD0FE2F29D0660F771F01
S1130770881FBB1F261737074807AB07B0E809F0E7
S1130780BB0B802DBF01FF2793585F4F3AF09E3F6C
S1130790510578F00C945D040C94A8045F3FE4F3D5
S11307A0983ED4F3869577956795B795F7959F5FAF
S11307B0C9F7880F911D9695879597F90895E1E0FB
S11307C0660F771F881FBB1F621773078407BA075A
S11307D020F0621B730B840BBA0BEE1F88F7E095B5
S11307E008950E948D0488F09F5798F0B92F992797
S11307F0B751B0F0E1F0660F771F881F991F1AF008
S1130800BA95C9F714C0B13091F00E94A704B1E0C1
S113081008950C94A704672F782F8827B85F39F0C0
S1130820B93FCCF3869577956795B395D9F73EF4A0
S113083090958095709561957F4F8F4F9F4F089548
S1130840E89409C097FB3EF4909580957095619566
S11308507F4F8F4F9F4F9923A9F0F92F96E9BB271C
S11308609395F695879577956795B795F111F8CF98
S1130870FAF4BB0F11F460FF1BC06F5F7F4F8F4F03
S11308809F4F16C0882311F096E911C0772321F0F9
S11308909EE8872F762F05C0662371F096E8862F91
S11308A070E060E02AF09A95660F771F881FDAF7E8
S11308B0880F9695879597F9089597F99F6780E82B
S11308C070E060E008959FEF80EC089500240A949E
S11308D01616170618060906089500240A94121617
S11308E01306140605060895092E0394000C11F44A
S11308F0882352F0BB0F40F4BF2B11F460FF04C0F7
S11309006F5F7F4F8F4F9F4F089557FD9058440F4F
S1130910551F59F05F3F71F04795880F97FB991F5A
S113092061F09F3F79F08795089512161306140617
S1130930551FF2CF4695F1DF08C0161617061806A4
S1130940991FF1CF86957105610508940895E8947F
S1130950BB2766277727CB0197F908950E94C10426
S11309600C9474040E94660438F00E946D0420F014
S1130970952311F00C945D040C94630411240C94DD
S1130980A8040E94850470F3959FC1F3950F50E06D
S1130990551F629FF001729FBB27F00DB11D639F2D
S11309A0AA27F00DB11DAA1F649F6627B00DA11DD3
S11309B0661F829F2227B00DA11D621F739FB00D79
S11309C0A11D621F839FA00D611D221F749F3327E9
S11309D0A00D611D231F849F600D211D822F762F82
S11309E06A2F11249F5750409AF0F1F088234AF05F
S11309F0EE0FFF1FBB1F661F771F881F91505040CB
S1130A00A9F79E3F510580F00C945D040C94A80452
S1130A105F3FE4F3983ED4F3869577956795B79551
S1130A20F795E7959F5FC1F7FE2B880F911D96956B
S1130A30879597F90895EE0FFF1F0590F491E02D27
S1130A400994A29FB001B39FC001A39F700D811DA3
S1130A501124911DB29F700D811D1124911D0895C3
S1070A60F894FFCF34
S1050A64320159
S9030000FC
