S01900004C6162352028496E7465727275707473292E7372656316
S11300000C9434000C9446000C9446000C94460066
S11300100C94A7000C9446000C9446000C944600E3
S11300200C9446000C9446000C9446000C94460034
S11300300C9446000C9446000C9446000C94460024
S11300400C9446000C9446000C9446000C94460014
S11300500C9446006100650069006D007100750034
S113006079007D008100850011241FBECFE5D8E012
S1130070DEBFCDBF20E0A0E6B0E001C01D92A536F2
S1130080B207E1F70E945B010C946B010C94000031
S113009080E88FBF8BE085BD14BC8EEF83BD89B72C
S11300A0806889BF08959C019BB3907F9BBB85B3F7
S11300B015BA6A30710560F5FB01E65DFF4F0C94DB
S11300C0650185B38F6385BB23C085B3866085BB1B
S11300D01FC085B38B6585BB1BC085B38F6485BB8F
S11300E017C085B3866685BB13C085B38D6685BB93
S11300F00FC085B38D6785BB0BC085B3876085BB97
S113010007C085B38F6785BB03C085B38F6685BB86
S11301102230310581F020F42130310541F0089579
S11301202330310561F02430310569F008958BB333
S113013081608BBB08958BB382608BBB08958BB3B6
S113014084608BBB08958BB388608BBB08951F922A
S11301500F920FB60F9211242F933F934F935F93F7
S11301606F937F938F939F93AF93BF93EF93FF937B
S1130170809162008F5F809362008230F9F018F4FE
S1130180813039F067C08330A1F1843009F446C06E
S113019061C0609163008DEC689F812D1124869568
S11301A086958695880F982F990F990F890F681B4C
S11301B070E081E090E00E9453004CC060916300C5
S11301C08DEC689F612D1124669566956695689FF0
S11301D0812D1124869586958695880F982F990FE1
S11301E0990F890F681B70E082E090E00E94530031
S11301F031C0609164008DEC689F812D1124869537
S113020086958695880F982F990F990F890F681BEB
S113021070E083E090E00E9453001CC06091640091
S11302208DEC689F612D1124669566956695689F8F
S1130230812D1124869586958695880F982F990F80
S1130240990F890F681B70E084E090E00E945300CE
S1130250109262008091600090916100873E23E0DB
S1130260920799F4809163008F5F809363001092EA
S11302706100109260008C3369F4109263008091E5
S113028064008F5F8093640005C0019690936100C1
S113029080936000FF91EF91BF91AF919F918F91F7
S11302A07F916F915F914F913F912F910F900FBE6E
S11302B00F901F9018958FE08ABB8FEF84BB0E942C
S11302C048008FB780688FBFFFCFEE0FFF1F0590E8
S10D02D0F491E02D0994F894FFCF97
S9030000FC
