S00F000042696C657431362E73726563BE
S11300000C9434000C9451000C9451000C94510045
S11300100C9451000C9451000C9451000C94C900A0
S11300200C9451000C9451000C9451000C94510008
S11300300C9451000C9451000C9451000C945100F8
S11300400C9451000C9451000C9451000C945100E8
S11300500C94510088008C009000940098009C003F
S1130060A000A400A800AC0011241FBECFE5D8E076
S1130070DEBFCDBF10E0A0E6B0E0E0E6F8E002C0ED
S113008005900D92A236B107D9F720E0A2E6B0E0C0
S113009001C01D92AF36B207E1F70E9459010C94DA
S11300A02E040C94000080E487B987E886B908958B
S11300B097B1907E97B997B1892B87B986B180643F
S11300C086B93699FECF24B185B190E0982F882760
S11300D0822B089580E88FBF1FBC8DE08EBD1DBCB0
S11300E01CBC8DE38BBD89E08ABD89B7806189BF63
S11300F008959BB3907F9BBB95B315BA462F50E0F0
S11301004A30510560F5FA01E65DFF4F0C9419047D
S113011095B39F6395BB23C095B3966095BB1FC0F1
S113012095B39B6595BB1BC095B39F6495BB17C0E6
S113013095B3966695BB13C095B39D6695BB0FC0EA
S113014095B39D6795BB0BC095B3976095BB07C0EE
S113015095B39F6795BB03C095B39F6695BB8230EB
S113016081F018F4813089F00895833031F08430BF
S113017079F48BB381608BBB08958BB382608BBBA6
S113018008958BB384608BBB08958BB388608BBB5D
S113019008951F920F920FB60F9211242F933F933D
S11301A04F935F936F937F938F939F93AF93BF937B
S11301B0EF93FF9380916D0090916E00009781F012
S11301C020916000213031F4019690936E00809369
S11301D06D000FC0019790936E0080936D0009C06D
S11301E020916000213029F4019690936E00809351
S11301F06D0086E00E945800909364008093630031
S1130200BC0180E090E00E941E0320E030E040EA60
S113021050E40E94840320E030E040E85AE30E9466
S1130220840320E030E04AE754E40E9484036093AE
S113023065007093660080936700909368000E9445
S1130240EF0270936A006093690040916D005091D1
S11302506E009A01ADECBCEC0E941F049695879544
S113026096958795969587959C01220F331F880F45
S1130270991F880F991F880F991F820F931F481782
S1130280590721F481E08093620002C01092620059
S1130290FF91EF91BF91AF919F918F917F916F915A
S11302A05F914F913F912F910F900FBE0F901F9030
S11302B018958FE08ABB8FEF84BB0E946A0081B3DC
S11302C08D7F81BB0E945300819B0DC080916B0088
S11302D081110BC081E080936B0090916000891BB9
S11302E08093600002C010926B0080916C008F5F5D
S11302F080936C0090916200913009F0B8C0823014
S113030061F118F4813041F0DFCF833009F44FC03C
S1130310843009F478C0D8CF4091690050916A00C4
S11303209A01ADECBCEC0E941F04969587959695B6
S1130330879596958795BC01660F771F880F991F3F
S1130340880F991F880F991F860F971F281B390B39
S1130350622F81E00E947900B7CF2091690030912B
S11303606A00ADECBCEC0E941F04AC0156954795A5
S113037056954795569547959A010E941F04969560
S113038087959695879596958795BC01660F771FF7
S1130390880F991F880F991F880F991F860F971F21
S11303A0281B390B622F82E00E9479008DCF2091A7
S11303B0690030916A003695279536952795ABE705
S11303C0B4E10E941F04AC01569547959A01ADEC27
S11303D0BCEC0E941F0496958795969587959695F3
S11303E08795BC01660F771F880F991F880F991F87
S11303F0880F991F860F971F281B390B622F83E0E4
S11304000E94790061CF2091690030916A0036958D
S113041027953695279536952795A5ECB0E20E9449
S11304201F04AC01529542954F7045275F704527D4
S11304309A01ADECBCEC0E941F04969587959695A5
S1130440879596958795BC01660F771F880F991F2E
S1130450880F991F880F991F860F971F281B390B28
S1130460622F84E00E94790010926C002DCF8230BC
S113047061F118F4813041F027CF833009F44FC083
S1130480843009F478C020CF40916D0050916E0003
S11304909A01ADECBCEC0E941F0496958795969545
S11304A0879596958795BC01660F771F880F991FCE
S11304B0880F991F880F991F860F971F281B390BC8
S11304C0622F81E00E947900FFCE20916D0030916F
S11304D06E00ADECBCEC0E941F04AC015695479530
S11304E056954795569547959A010E941F049695EF
S11304F087959695879596958795BC01660F771F86
S1130500880F991F880F991F880F991F860F971FAF
S1130510281B390B622F82E00E947900D5CE2091EE
S11305206D0030916E003695279536952795ABE78B
S1130530B4E10E941F04AC01569547959A01ADECB5
S1130540BCEC0E941F049695879596958795969581
S11305508795BC01660F771F880F991F880F991F15
S1130560880F991F860F971F281B390B622F83E072
S11305700E947900A9CE20916D0030916E003695CD
S113058027953695279536952795A5ECB0E20E94D8
S11305901F04AC01529542954F7045275F70452763
S11305A09A01ADECBCEC0E941F0496958795969534
S11305B0879596958795BC01660F771F880F991FBD
S11305C0880F991F880F991F860F971F281B390BB7
S11305D0622F84E00E94790010926C0075CE0E9414
S11305E0630388F09F5798F0B92F9927B751B0F05B
S11305F0E1F0660F771F881F991F1AF0BA95C9F7A3
S113060014C0B13091F00E947D03B1E008950C94C0
S11306107D03672F782F8827B85F39F0B93FCCF373
S1130620869577956795B395D9F73EF4909580951F
S1130630709561957F4F8F4F9F4F0895E89409C03F
S113064097FB3EF490958095709561957F4F8F4F01
S11306509F4F9923A9F0F92F96E9BB279395F69517
S1130660879577956795B795F111F8CFFAF4BB0F95
S113067011F460FF1BC06F5F7F4F8F4F9F4F16C0F9
S1130680882311F096E911C0772321F09EE8872F83
S1130690762F05C0662371F096E8862F70E060E03F
S11306A02AF09A95660F771F881FDAF7880F9695B8
S11306B0879597F9089557FD9058440F551F59F0A1
S11306C05F3F71F04795880F97FB991F61F09F3F3B
S11306D079F087950895121613061406551FF2CF64
S11306E04695F1DF08C0161617061806991FF1CFB4
S11306F086957105610508940895E894BB276627DB
S11307007727CB0197F908950E9497030C94080466
S11307100E94FA0338F00E94010420F0952311F09E
S11307200C94F1030C94F70311240C947E030E949F
S11307305B0370F3959FC1F3950F50E0551F629FC3
S1130740F001729FBB27F00DB11D639FAA27F00D26
S1130750B11DAA1F649F6627B00DA11D661F829F4D
S11307602227B00DA11D621F739FB00DA11D621F32
S1130770839FA00D611D221F749F3327A00D611D4F
S1130780231F849F600D211D822F762F6A2F112431
S11307909F5750409AF0F1F088234AF0EE0FFF1F64
S11307A0BB1F661F771F881F91505040A9F79E3FBB
S11307B0510580F00C94F1030C947E035F3FE4F345
S11307C0983ED4F3869577956795B795F795E79511
S11307D09F5FC1F7FE2B880F911D9695879597F91A
S11307E0089597F99F6780E870E060E008959FEFAF
S11307F080EC089500240A941616170618060906B4
S1130800089500240A941216130614060506089582
S1130810092E0394000C11F4882352F0BB0F40F40A
S1130820BF2B11F460FF04C06F5F7F4F8F4F9F4F4A
S11308300895EE0FFF1F0590F491E02D0994A29FF7
S1130840B001B39FC001A39F700D811D1124911DA0
S1130850B29F700D811D1124911D0895F894FFCF4E
S1050860010091
S9030000FC
