S01200004C616237202850574D292E7372656367
S11300000C9434000C9446000C9446000C94460066
S11300100C9446000C9446000C9446000C94460044
S11300200C9446000C9446000C94C3000C944600B7
S11300300C9446000C9446000C9446000C94460024
S11300400C94CE010C9446000C9446000C9446008B
S11300500C9446007E00820086008A008E00920086
S113006096009A009E00A20011241FBECFE5D8E09E
S1130070DEBFCDBF20E0A0E6B0E001C01D92A536F2
S1130080B207E1F70E941E020C94E4030C940000F2
S113009080E487B986E886B9089597B1907E97B9C8
S11300A097B1892B87B986B1806486B93699FECF1A
S11300B024B185B190E0982F8827822B089580E899
S11300C08FBF8BE083BF12BE8DE78CBF89B7826080
S11300D089BF089581B3806881BB8FE785BD08958A
S11300E09C019BB3907F9BBB85B315BA6A307105A5
S11300F060F5FB01E65DFF4F0C94CF0385B38F637E
S113010085BB23C085B3866085BB1FC085B38B6563
S113011085BB1BC085B38F6485BB17C085B386665A
S113012085BB13C085B38D6685BB0FC085B38D6752
S113013085BB0BC085B3876085BB07C085B38F675C
S113014085BB03C085B38F6685BB2230310581F042
S113015020F42130310541F008952330310559F060
S11301602430310561F008958BB381608BBB089511
S11301708BB382608BBB8BB384608BBB08958BB3D2
S113018088608BBB08951F920F920FB60F921124B3
S11301902F933F934F935F936F937F938F939F938B
S11301A0AF93BF93EF93FF93809164008F5F80932D
S11301B06400823069F118F4813041F0B5C08330B5
S11301C009F451C0843009F47BC0AEC04091600092
S11301D0509161009A01ADECBCEC0E94D503969558
S11301E0879596958795969587959C01220F331F41
S11301F0880F991F880F991F880F991F820F931FCB
S1130200BA01681B790B81E090E00E9470008CC0F9
S11302102091600030916100ADECBCEC0E94D503EC
S1130220AC015695479556954795569547959A012D
S11302300E94D5039695879596958795969587956B
S11302409C01220F331F880F991F880F991F880F55
S1130250991F820F931FBA01681B790B82E090E00B
S11302600E94700061C02091600030916100369559
S1130270279536952795ABE7B4E10E94D503AC01E9
S1130280569547959A01ADECBCEC0E94D503969522
S1130290879596958795969587959C01220F331F90
S11302A0880F991F880F991F880F991F820F931F1A
S11302B0BA01681B790B83E090E00E94700034C09F
S11302C020916000309161003695279536952795E9
S11302D036952795A5ECB0E20E94D503AC01529562
S11302E042954F7045275F7045279A01ADECBCECF1
S11302F00E94D503969587959695879596958795AB
S11303009C01220F331F880F991F880F991F880F94
S1130310991F820F931FBA01681B790B84E090E048
S11303200E947000109264008091620090916300BA
S11303308A309105E9F486E00E944D0096958795F0
S113034096958795909361008093600083BD20917A
S11303506000309161008FEF90E0821B930B9093CB
S1130360610080936000109263001092620005C0E7
S113037001969093630080936200FF91EF91BF9187
S1130380AF919F918F917F916F915F914F913F9129
S11303902F910F900FBE0F901F9018951F920F92E0
S11303A00FB60F9211242F933F934F935F936F9344
S11303B07F938F939F93AF93BF93EF93FF9384B1F6
S11303C065B170E0762F6627682B80E090E00E948C
S11303D0D40220E030E040EA50E40E94620320E0CE
S11303E030E040E85AE30E94620320E030E04AE74C
S11303F054E40E94620320E030E040E251E40E94B1
S11304002C0220E030E040E251E40E9462030E94AA
S11304109E027093610060936000FF91EF91BF9121
S1130420AF919F918F917F916F915F914F913F9188
S11304302F910F900FBE0F901F9018958FE08ABBDD
S11304408FEF84BB0E945F000E9448000E946A00F4
S11304508FB780688FBFFFCF0E9440020C9428039F
S11304600E94210358F00E941A0340F029F45F3FD0
S113047029F00C94110351110C945C030C94170390
S11304800E94390368F39923B1F3552391F3951B23
S1130490550BBB27AA2762177307840738F09F5FA1
S11304A05F4F220F331F441FAA1FA9F335D00E2E0E
S11304B03AF0E0E832D091505040E695001CCAF77B
S11304C02BD0FE2F29D0660F771F881FBB1F26173E
S11304D037074807AB07B0E809F0BB0B802DBF0115
S11304E0FF2793585F4F3AF09E3F510578F00C94E4
S11304F011030C945C035F3FE4F3983ED4F38695B8
S113050077956795B795F7959F5FC9F7880F911D04
S11305109695879597F90895E1E0660F771F881FF0
S1130520BB1F621773078407BA0720F0621B730BA3
S1130530840BBA0BEE1F88F7E09508950E94A5027C
S11305406894B1110C945C0308950E94410388F0EF
S11305509F5798F0B92F9927B751B0F0E1F0660F83
S1130560771F881F991F1AF0BA95C9F714C0B130C4
S113057091F00E945B03B1E008950C945B03672F34
S1130580782F8827B85F39F0B93FCCF386957795F3
S11305906795B395D9F73EF49095809570956195DC
S11305A07F4F8F4F9F4F0895E89409C097FB3EF407
S11305B090958095709561957F4F8F4F9F4F9923AC
S11305C0A9F0F92F96E9BB279395F695879577952A
S11305D06795B795F111F8CFFAF4BB0F11F460FFEA
S11305E01BC06F5F7F4F8F4F9F4F16C0882311F042
S11305F096E911C0772321F09EE8872F762F05C056
S1130600662371F096E8862F70E060E02AF09A95F0
S1130610660F771F881FDAF7880F9695879597F9E5
S1130620089597F99F6780E870E060E008959FEF70
S113063080EC089500240A94161617061806090675
S1130640089500240A941216130614060506089544
S1130650092E0394000C11F4882352F0BB0F40F4CC
S1130660BF2B11F460FF04C06F5F7F4F8F4F9F4F0C
S1130670089557FD9058440F551F59F05F3F71F08E
S11306804795880F97FB991F61F09F3F79F08795F5
S11306900895121613061406551FF2CF4695F1DF7E
S11306A008C0161617061806991FF1CF869571050E
S11306B0610508940895E894BB2766277727CB0142
S11306C097F908950E9475030C9428030E941A0355
S11306D038F00E94210320F0952311F00C941103AB
S11306E00C94170311240C945C030E94390370F3D7
S11306F0959FC1F3950F50E0551F629FF001729FC3
S1130700BB27F00DB11D639FAA27F00DB11DAA1FD1
S1130710649F6627B00DA11D661F829F2227B00D1E
S1130720A11D621F739FB00DA11D621F839FA00DA9
S1130730611D221F749F3327A00D611D231F849FF9
S1130740600D211D822F762F6A2F11249F57504050
S11307509AF0F1F088234AF0EE0FFF1FBB1F661FCB
S1130760771F881F91505040A9F79E3F510580F094
S11307700C9411030C945C035F3FE4F3983ED4F3B0
S1130780869577956795B795F795E7959F5FC1F738
S1130790FE2B880F911D9695879597F90895EE0F76
S11307A0FF1F0590F491E02D0994A29FB001B39F1F
S11307B0C001A39F700D811D1124911DB29F700D66
S10F07C0811D1124911D0895F894FFCFB1
S9030000FC
