:100000000C942A000C9434000C9434000C943400AA
:100010000C9434000C9434000C9434000C94340090
:100020000C9434000C9434000C9434000C94340080
:100030000C9434000C9434000C9434000C94340070
:100040000C9434000C9434000C9434000C94340060
:100050000C94340011241FBECFE5D8E0DEBFCDBF25
:100060000E9436000C9448000C94000081B38FEF7E
:1000700081BB87B38B7F87BB80E090E0B29B05C0DC
:10008000911104C08F5F91E001C090E082BBF6CF78
:04009000F894FFCF12
:00000001FF
