:100000000C9434000C9451000C9451000C94510049
:100010000C9451000C9451000C9451000C9451001C
:100020000C9451000C9451000C94B7000C945100A6
:100030000C9451000C9451000C9451000C945100FC
:100040000C9451000C9451000C9451000C945100EC
:100050000C945100720076007A007E0082008600C7
:100060008A008E009200960011241FBECFE5D8E0D2
:10007000DEBFCDBF10E0A0E6B0E0EAEBF3E002C0E7
:1000800005900D92AA36B107D9F720E0AAE6B0E0B4
:1000900001C01D92A637B207E1F70E94BA010C9485
:1000A000DB010C94000080E88FBF8BE083BF12BEA1
:1000B0008DE78CBF89B7826089BF089581B380685E
:1000C00081BB89E685BD08959C019BB3907F9BBB56
:1000D00085B315BA6A30710560F5FB01E65DFF4F27
:1000E0000C94C60185B38F6385BB23C085B386603E
:1000F00085BB1FC085B38B6585BB1BC085B38F6473
:1001000085BB17C085B3866685BB13C085B38D6676
:1001100085BB0FC085B38D6785BB0BC085B387607A
:1001200085BB07C085B38F6785BB03C085B38F666A
:1001300085BB2230310581F020F42130310541F0BA
:1001400008952330310559F02430310561F00895C8
:100150008BB381608BBB08958BB382608BBB8BB3F9
:1001600084608BBB08958BB388608BBB08951F920E
:100170000F920FB60F9211242F933F934F935F93DB
:100180006F937F938F939F93AF93BF93EF93FF935F
:1001900080916E008F5F80936E00823069F118F459
:1001A000813041F0B5C0833009F451C0843009F486
:1001B0007BC0AEC040916C0050916D009A01ADECD7
:1001C000BCEC0E94CC01969587959695879596955F
:1001D00087959C01220F331F880F991F880F991F45
:1001E000880F991F820F931FBA01681B790B81E05A
:1001F00090E00E9464008CC020916C0030916D00F2
:10020000ADECBCEC0E94CC01AC01569547955695DF
:100210004795569547959A010E94CC0196958795EA
:1002200096958795969587959C01220F331F880F89
:10023000991F880F991F880F991F820F931FBA016A
:10024000681B790B82E090E00E94640061C02091FD
:100250006C0030916D003695279536952795ABE764
:10026000B4E10E94CC01AC01569547959A01ADECE2
:10027000BCEC0E94CC0196958795969587959695AE
:1002800087959C01220F331F880F991F880F991F94
:10029000880F991F820F931FBA01681B790B83E0A7
:1002A00090E00E94640034C020916C0030916D0099
:1002B000369527953695279536952795A5ECB0E286
:1002C0000E94CC01AC01529542954F7045275F705A
:1002D00045279A01ADECBCEC0E94CC019695879520
:1002E00096958795969587959C01220F331F880FC9
:1002F000991F880F991F880F991F820F931FBA01AA
:10030000681B790B84E090E00E94640010926E00FC
:1003100080916A0090916B000097B1F4E0917300B6
:1003200081E08E0F80937300F0E0E05AFF4F8081F0
:1003300083BD809173008A3011F410927300109283
:100340006B0010926A0005C0019690936B00809339
:100350006A00FF91EF91BF91AF919F918F917F9133
:100360006F915F914F913F912F910F900FBE0F9022
:100370001F9018958FE08ABB8FEF84BB0E945300BB
:100380000E945E008FB780688FBFFFCFEE0FFF1F08
:100390000590F491E02D0994A29FB001B39FC00194
:1003A000A39F700D811D1124911DB29F700D811DA1
:0A03B0001124911D0895F894FFCF69
:0A03BA0080E2E297688097681D1D3D
:00000001FF
