S00F000042696C657432382E73726563BB
S11300000C9434000C9446000C9446000C94460066
S11300100C9446000C9446000C9446000C94A600E4
S11300200C9446000C9446000C9446000C94460034
S11300300C9446000C9446000C9446000C94460024
S11300400C9446000C9446000C9446000C94460014
S11300500C944600650069006D007100750079001C
S11300607D0081008500890011241FBECFE5D8E002
S1130070DEBFCDBF20E0A0E6B0E001C01D92AB36EC
S1130080B207E1F70E94A5010C94F4010C9400005E
S113009080E88FBF1FBC8BE08EBD1DBC1CBC1BBC8D
S11300A08AEF8ABD89B7806189BF08959BB3907F29
S11300B09BBB95B315BA462F50E04A30510560F505
S11300C0FA01E65DFF4F0C94DF0195B39F6395BB86
S11300D023C095B3966095BB1FC095B39B6595BB34
S11300E01BC095B39F6495BB17C095B3966695BB2B
S11300F013C095B39D6695BB0FC095B39D6795BB23
S11301000BC095B3976095BB07C095B39F6795BB2C
S113011003C095B39F6695BB823081F018F481309B
S113012089F00895833031F0843079F48BB38160A1
S11301308BBB08958BB382608BBB08958BB38460B3
S11301408BBB08958BB388608BBB08951F920F926D
S11301500FB60F9211242F933F934F935F936F9396
S11301607F938F939F93AF93BF93EF93FF9380916C
S113017064008F5F809364008230A9F118F48130A9
S113018041F08DC0833009F45AC0843009F46DC045
S113019086C02091690030916A00ADECBCEC0E94ED
S11301A0E501AC0156954795569547955695479563
S11301B09A010E94E501969587959695879596955F
S11301C08795BC01660F771F880F991F880F991FA9
S11301D0880F991F860F971F281B390B622F81E008
S11301E00E9456005CC02091690030916A003695E7
S11301F0279536952795ABE7B4E10E94E501AC015C
S1130200569547959A01ADECBCEC0E94E501969594
S113021087959695879596958795BC01660F771F68
S1130220880F991F880F991F880F991F860F971F92
S1130230281B390B622F82E00E94560030C0609167
S113024066008DEC689F812D112486958695869590
S1130250880F982F990F990F890F681B83E00E94CC
S1130260560085B3806885BB1AC0609166008DEC2A
S1130270689F612D1124669566956695689F812D0A
S11302801124869586958695880F982F990F990F36
S1130290890F681B84E00E945600109264008091CC
S11302A067009091680002969093680080936700BD
S11302B020916000222309F12091690030916A00A5
S11302C0273E43E0340798F0209166002F5F209387
S11302D0660010926A00109269002C3371F4109237
S11302E06600209165002F5F2093650006C02E5F95
S11302F03F4F30936A0020936900803D974088F017
S113030088B3816088BB8091670090916800843CC9
S1130310994050F084EF91E09093680080936700D7
S113032003C088B38E7F88BBFF91EF91BF91AF91DB
S11303309F918F917F916F915F914F913F912F91F9
S11303400F900FBE0F901F90189587B3816087BBE5
S11303508FE08ABB8FEF84BB0E944800B79B0AC022
S113036080916300811108C081E0809363008093D1
S1130370600002C010926300B69B0AC080916200C4
S1130380811108C081E0809362001092600002C075
S113039010926200B59B10C0809161008111DECF84
S11303A081E08093610010926A00109269001092BB
S11303B0660010926500D2CF10926100CFCFEE0F8D
S11303C0FF1F0590F491E02D0994A29FB001B39F03
S11303D0C001A39F700D811D1124911DB29F700D4A
S10F03E0811D1124911D0895F894FFCF95
S90300609C
