S00E000042696C6574372E73726563EF
S11300000C9434000C946E010C947F010C945100F8
S11300100C94D9000C9451000C9451000C94510090
S11300200C9451000C9451000C9451000C94510008
S11300300C9451000C9451000C9451000C945100F8
S11300400C9451000C9451000C9451000C945100E8
S11300500C94510098009C00A000A400A800AC00DF
S1130060B000B400B800BC0011241FBECFE5D8E036
S1130070DEBFCDBF10E0A0E6B0E0ECEDF3E002C0DF
S113008005900D92A236B107D9F720E0A2E6B0E0C0
S113009001C01D92A536B207E1F70E94AA010C9493
S11300A0EC010C94000080E487B987E886B90895D0
S11300B097B1907E97B997B1892B87B986B180643F
S11300C086B93699FECF24B185B190E0982F882760
S11300D0822B089580E88FBF8BE085BD14BC8AEF26
S11300E083BD89B7806889BF08958BB780648BBF4F
S11300F085B7826085BF8FB780688FBF08958BB73F
S113010080688BBF85B7886085BF8FB780688FBFD5
S113011008959BB3907F9BBB95B315BA462F50E0CF
S11301204A30510560F5FA01E65DFF4F0C94D201A7
S113013095B39F6395BB23C095B3966095BB1FC0D1
S113014095B39B6595BB1BC095B39F6495BB17C0C6
S113015095B3966695BB13C095B39D6695BB0FC0CA
S113016095B39D6795BB0BC095B3976095BB07C0CE
S113017095B39F6795BB03C095B39F6695BB8230CB
S113018081F018F4813089F00895833031F084309F
S113019079F48BB381608BBB08958BB382608BBB86
S11301A008958BB384608BBB08958BB388608BBB3D
S11301B008951F920F920FB60F9211242F933F931D
S11301C04F935F936F937F938F939F93AF93BF935B
S11301D0EF93FF93809162008F5F8093620082307F
S11301E0E1F018F4813031F04FC0833079F184307C
S11301F0C9F14AC0609160008DEC689F812D112483
S1130200869586958695880F982F990F990F890F53
S1130210681B81E00E94890037C0609160008DEC0A
S1130220689F612D1124669566956695689F812D5A
S11302301124869586958695880F982F990F990F86
S1130240890F681B82E00E9489001EC080916000B3
S113025069E2869F612D112462956F7083E00E948C
S1130260890012C08091600090E068EE73E00E9403
S1130270BE01CB016AE070E00E94BE01682F84E0F9
S11302800E94890010926200209160002223A9F04C
S11302908091630090916400833F31E0930741F4BF
S11302A0109264001092630021502093600005C0F6
S11302B001969093640080936300FF91EF91BF9146
S11302C0AF919F918F917F916F915F914F913F91EA
S11302D02F910F900FBE0F901F9018951F920F92A1
S11302E00FB60F9211248F93809160008F5F8093DB
S11302F060008F910F900FBE0F901F9018951F9262
S11303000F920FB60F9211242F933F934F935F9345
S11303106F937F938F939F93AF93BF93EF93FF93C9
S113032086E00E94580096958795969587958093C8
S11303306000FF91EF91BF91AF919F918F917F9159
S11303406F915F914F913F912F910F900FBE0F903E
S11303501F90189587B3886087BB8CE683BF86E6B9
S11303608CBF8FE08ABB8FEF84BB0E9453000E9436
S113037075000E947F000E946A00FFCF97FB072E42
S113038016F4009407D077FD09D00E94D80107FC29
S113039005D03EF4909581959F4F08957095619591
S11303A07F4F0895EE0FFF1F0590F491E02D0994FF
S11303B0AA1BBB1B51E107C0AA1FBB1FA617B70787
S11303C010F0A61BB70B881F991F5A95A9F78095A3
S10F03D09095BC01CD010895F894FFCF76
S10503DCFF001C
S9030000FC
