S01300004C6162332054696D6572652E7372656349
S11300000C9434000C943E000C943E000C943E007E
S11300100C943E000C943E000C943E000C943E0064
S11300200C943E000C943E000C943E000C943E0054
S11300300C943E000C943E000C943E000C943E0044
S11300400C943E000C943E000C943E000C943E0034
S11300500C943E00530057005B005F006300670090
S11300606B006F007300770011241FBECFE5D8E04A
S1130070DEBFCDBF0E9494000C9460010C9400007C
S113008084E085BD14BC08959BB3907F9BBB95B35E
S113009015BA462F50E04A30510560F5FA01E65D85
S11300A0FF4F0C944B0195B39F6395BB23C095B34D
S11300B0966095BB1FC095B39B6595BB1BC095B35C
S11300C09F6495BB17C095B3966695BB13C095B353
S11300D09D6695BB0FC095B39D6795BB0BC095B34B
S11300E0976095BB07C095B39F6795BB03C095B355
S11300F09F6695BB823081F018F4813089F00895B1
S1130100833031F0843079F48BB381608BBB0895F4
S11301108BB382608BBB08958BB384608BBB0895D3
S11301208BB388608BBB08958FE08ABB8FEF84BB51
S113013087B38C7F87BB0E944000D12CE12CF12C2B
S1130140D0E000E010E0FF2081F084B58D3768F046
S113015014BC0F5F1F4F083E23E0120718F0DF5F47
S113016000E010E0DC3309F4D0E0B19B08C0D1100A
S113017007C081E08F19F82EDD24D39401C0D12C5F
S1130180B09B03C0EE2019F007C0E12C05C0EE249B
S1130190E394D0E000E010E09801ADECBCEC0E94E8
S11301A05101AC01569547955695479556954795F7
S11301B0CA01880F991F440F551F440F551F440F40
S11301C0551F480F591FC801841B950B9C010E94A1
S11301D05101969587959695879596958795BC0137
S11301E0660F771F880F991F880F991F880F991F13
S11301F0860F971F281B390B622F81E00E94440051
S113020098013695279536952795ABE7B4E10E947A
S11302105101AC01569547959A01ADECBCEC0E9496
S11302205101969587959695879596958795BC01E6
S1130230660F771F880F991F880F991F880F991FC2
S1130240860F971F281B390B622F82E00E944400FF
S1130250CDECDC9FC12C1124C694C694C6949C2D6D
S1130260990F892F880F880F890F6D2F681B83E0E2
S11302700E944400CC9EC12D1124C695C695C695F6
S1130280CC0F8C2F880F880FC80F6C2D6C1B84E04B
S11302900E94440058CFEE0FFF1F0590F491E02D0B
S11302A00994A29FB001B39FC001A39F700D811D4B
S11302B01124911DB29F700D811D1124911D08956B
S10702C0F894FFCFDC
S9030000FC
