:100000000C9434000C9463010C9474010C9446001D
:100010000C94B7000C9446000C9446000C944600D7
:100020000C9446000C9446000C9446000C94460038
:100030000C9446000C9446000C9446000C94460028
:100040000C9446000C9446000C9446000C94460018
:100050000C94460076007A007E00820086008A00BA
:100060008E00920096009A0011241FBECFE5D8E0C2
:10007000DEBFCDBF20E0A0E6B0E001C01D92A536F6
:10008000B207E1F70E9485010C9496010C940000E0
:1000900080E88FBF8BE085BD14BC8AEF83BD89B734
:1000A000806889BF08958BB780648BBF85B78360F4
:1000B00085BF8FB780688FBF08958BB780688BBF6F
:1000C00085B78C6085BF8FB780688FBF08959BB35D
:1000D000907F9BBB95B315BA462F50E04A3051052F
:1000E00060F5FA01E65DFF4F0C94900195B39F63B4
:1000F00095BB23C095B3966095BB1FC095B39B6518
:1001000095BB1BC095B39F6495BB17C095B396660E
:1001100095BB13C095B39D6695BB0FC095B39D6706
:1001200095BB0BC095B3976095BB07C095B39F6710
:1001300095BB03C095B39F6695BB823081F018F4E0
:10014000813089F00895833031F0843079F48BB3B5
:1001500081608BBB08958BB382608BBB08958BB39A
:1001600084608BBB08958BB388608BBB08951F920E
:100170000F920FB60F9211242F933F934F935F93DB
:100180006F937F938F939F93AF93BF93EF93FF935F
:10019000809160008F5F809360008230E9F018F4F6
:1001A000813039F05FC0833081F1843009F440C080
:1001B00059C0609162008DEC689F812D1124869555
:1001C00086958695880F982F990F990F890F681B30
:1001D00081E00E94670046C0609162008DEC689FDC
:1001E000612D1124669566956695689F812D112471
:1001F000869586958695880F982F990F990F890F68
:10020000681B82E00E9467002DC0609161008DEC48
:10021000689F812D1124869586958695880F982F45
:10022000990F990F890F681B83E00E9467001AC01D
:10023000609161008DEC689F612D11246695669533
:100240006695689F812D1124869586958695880FE1
:10025000982F990F990F890F681B84E00E946700FF
:10026000109260008091630090916400873E23E0CB
:10027000920799F4809162008F5F809362001092E0
:100280006400109263008C3369F4109262008091D4
:1002900061008F5F8093610005C0019690936400B8
:1002A00080936300FF91EF91BF91AF919F918F91E8
:1002B0007F916F915F914F913F912F910F900FBE62
:1002C0000F901F9018951F920F920FB60F92112446
:1002D0008F93809161008F5F809361008F910F9069
:1002E0000FBE0F901F9018951F920F920FB60F928E
:1002F00011248F93809162008F5F809362008F91B1
:100300000F900FBE0F901F9018958FE08ABB8FEF54
:1003100084BB0E9453000E945D000E944800FFCFF2
:10032000EE0FFF1F0590F491E02D0994F894FFCF94
:00000001FF
