:100000000C9434000C943E000C943E000C943E0082
:100010000C943E000C943E000C943E000C943E0068
:100020000C943E000C943E000C943E000C943E0058
:100030000C943E000C943E000C943E000C943E0048
:100040000C943E000C943E000C943E000C943E0038
:100050000C943E00520056005A005E00620066009A
:100060006A006E007200760011241FBECFE5D8E052
:10007000DEBFCDBF0E9498000C9409010C940000D3
:1000800084E085BD14BC08959C019BB3907F9BBB0D
:1000900085B315BA6A30710560F5FB01E65DFF4F67
:1000A0000C94030185B38F6385BB23C085B3866041
:1000B00085BB1FC085B38B6585BB1BC085B38F64B3
:1000C00085BB17C085B3866685BB13C085B38D66B7
:1000D00085BB0FC085B38D6785BB0BC085B38760BB
:1000E00085BB07C085B38F6785BB03C085B38F66AB
:1000F00085BB2230310581F020F42130310541F0FB
:1001000008952330310561F02430310569F00895F8
:100110008BB381608BBB08958BB382608BBB0895DA
:100120008BB384608BBB08958BB388608BBB0895C1
:100130008FE08ABB8FEF84BB81B3877E81BB0E9437
:10014000400000E010E0F12CE12C84B58D3778F010
:1001500014BC0F5F1F4F083E83E0180718F0F3949C
:1001600000E010E08CE3F81202C0E394F12CCDEC37
:10017000FC9ED12D1124D695D695D6959D2F990FFD
:10018000892F880F880F890F6F2D681B70E081E021
:1001900090E00E944400DC9F812D11248695869575
:1001A0008695880F982F990F990F890FD81B6D2F5F
:1001B00070E082E090E00E944400EC9ED12D11247A
:1001C000D695D695D6959D2F990F892F880F880F94
:1001D000890F6E2D681B70E083E090E00E94440060
:1001E000DC9FC12D1124C695C695C695CC0F8C2FCA
:1001F000880F880FC80FDC1B6D2F70E084E090E043
:100200000E944400A2CFEE0FFF1F0590F491E02D55
:060210000994F894FFCFF1
:00000001FF
